{
  "address": "0x8e671978c12Bdf1Ebe9271145C75E093a7e9c036",
  "abi": [
    {
      "inputs": [],
      "stateMutability": "nonpayable",
      "type": "constructor"
    },
    {
      "anonymous": false,
      "inputs": [
        {
          "indexed": true,
          "internalType": "bytes32",
          "name": "role",
          "type": "bytes32"
        },
        {
          "indexed": true,
          "internalType": "bytes32",
          "name": "previousAdminRole",
          "type": "bytes32"
        },
        {
          "indexed": true,
          "internalType": "bytes32",
          "name": "newAdminRole",
          "type": "bytes32"
        }
      ],
      "name": "RoleAdminChanged",
      "type": "event"
    },
    {
      "anonymous": false,
      "inputs": [
        {
          "indexed": true,
          "internalType": "bytes32",
          "name": "role",
          "type": "bytes32"
        },
        {
          "indexed": true,
          "internalType": "address",
          "name": "account",
          "type": "address"
        },
        {
          "indexed": true,
          "internalType": "address",
          "name": "sender",
          "type": "address"
        }
      ],
      "name": "RoleGranted",
      "type": "event"
    },
    {
      "anonymous": false,
      "inputs": [
        {
          "indexed": true,
          "internalType": "bytes32",
          "name": "role",
          "type": "bytes32"
        },
        {
          "indexed": true,
          "internalType": "address",
          "name": "account",
          "type": "address"
        },
        {
          "indexed": true,
          "internalType": "address",
          "name": "sender",
          "type": "address"
        }
      ],
      "name": "RoleRevoked",
      "type": "event"
    },
    {
      "inputs": [],
      "name": "DEFAULT_ADMIN_ROLE",
      "outputs": [
        {
          "internalType": "bytes32",
          "name": "",
          "type": "bytes32"
        }
      ],
      "stateMutability": "view",
      "type": "function"
    },
    {
      "inputs": [],
      "name": "PUBLISHER_ROLE",
      "outputs": [
        {
          "internalType": "bytes32",
          "name": "",
          "type": "bytes32"
        }
      ],
      "stateMutability": "view",
      "type": "function"
    },
    {
      "inputs": [
        {
          "internalType": "uint256",
          "name": "",
          "type": "uint256"
        }
      ],
      "name": "data",
      "outputs": [
        {
          "internalType": "bytes32",
          "name": "",
          "type": "bytes32"
        }
      ],
      "stateMutability": "view",
      "type": "function"
    },
    {
      "inputs": [
        {
          "internalType": "bytes32",
          "name": "role",
          "type": "bytes32"
        }
      ],
      "name": "getRoleAdmin",
      "outputs": [
        {
          "internalType": "bytes32",
          "name": "",
          "type": "bytes32"
        }
      ],
      "stateMutability": "view",
      "type": "function"
    },
    {
      "inputs": [
        {
          "internalType": "bytes32",
          "name": "role",
          "type": "bytes32"
        },
        {
          "internalType": "uint256",
          "name": "index",
          "type": "uint256"
        }
      ],
      "name": "getRoleMember",
      "outputs": [
        {
          "internalType": "address",
          "name": "",
          "type": "address"
        }
      ],
      "stateMutability": "view",
      "type": "function"
    },
    {
      "inputs": [
        {
          "internalType": "bytes32",
          "name": "role",
          "type": "bytes32"
        }
      ],
      "name": "getRoleMemberCount",
      "outputs": [
        {
          "internalType": "uint256",
          "name": "",
          "type": "uint256"
        }
      ],
      "stateMutability": "view",
      "type": "function"
    },
    {
      "inputs": [
        {
          "internalType": "bytes32",
          "name": "role",
          "type": "bytes32"
        },
        {
          "internalType": "address",
          "name": "account",
          "type": "address"
        }
      ],
      "name": "grantRole",
      "outputs": [],
      "stateMutability": "nonpayable",
      "type": "function"
    },
    {
      "inputs": [
        {
          "internalType": "bytes32",
          "name": "role",
          "type": "bytes32"
        },
        {
          "internalType": "address",
          "name": "account",
          "type": "address"
        }
      ],
      "name": "hasRole",
      "outputs": [
        {
          "internalType": "bool",
          "name": "",
          "type": "bool"
        }
      ],
      "stateMutability": "view",
      "type": "function"
    },
    {
      "inputs": [
        {
          "internalType": "uint256",
          "name": "_key",
          "type": "uint256"
        },
        {
          "internalType": "bytes32",
          "name": "_value",
          "type": "bytes32"
        }
      ],
      "name": "publish",
      "outputs": [],
      "stateMutability": "nonpayable",
      "type": "function"
    },
    {
      "inputs": [
        {
          "internalType": "bytes32",
          "name": "role",
          "type": "bytes32"
        },
        {
          "internalType": "address",
          "name": "account",
          "type": "address"
        }
      ],
      "name": "renounceRole",
      "outputs": [],
      "stateMutability": "nonpayable",
      "type": "function"
    },
    {
      "inputs": [
        {
          "internalType": "bytes32",
          "name": "role",
          "type": "bytes32"
        },
        {
          "internalType": "address",
          "name": "account",
          "type": "address"
        }
      ],
      "name": "revokeRole",
      "outputs": [],
      "stateMutability": "nonpayable",
      "type": "function"
    },
    {
      "inputs": [
        {
          "internalType": "bytes4",
          "name": "interfaceId",
          "type": "bytes4"
        }
      ],
      "name": "supportsInterface",
      "outputs": [
        {
          "internalType": "bool",
          "name": "",
          "type": "bool"
        }
      ],
      "stateMutability": "view",
      "type": "function"
    }
  ],
  "transactionHash": "0xa1fb3c3dfc1c360a21fe913a71bbab2dd460705cbed6b2c21b6ceaff0a017cbd",
  "args": [],
  "solcInputHash": "c2e007393e31d4b23fb8e94a48c757b9",
  "bytecode": "0x60806040523480156200001157600080fd5b50620000537f0ac90c257048ef1c3e387c26d4a99bde06894efbcbff862dc1885c3a9319308a620000476200005960201b60201c565b6200006160201b60201c565b620002ef565b600033905090565b620000788282620000a960201b620005091760201c565b620000a48160016000858152602001908152602001600020620000bf60201b620005171790919060201c565b505050565b620000bb8282620000f760201b60201c565b5050565b6000620000ef836000018373ffffffffffffffffffffffffffffffffffffffff1660001b620001e860201b60201c565b905092915050565b6200010982826200026260201b60201c565b620001e457600160008084815260200190815260200160002060000160008373ffffffffffffffffffffffffffffffffffffffff1673ffffffffffffffffffffffffffffffffffffffff16815260200190815260200160002060006101000a81548160ff021916908315150217905550620001896200005960201b60201c565b73ffffffffffffffffffffffffffffffffffffffff168173ffffffffffffffffffffffffffffffffffffffff16837f2f8788117e7eff1d82e926ec794901d17c78024a50270940304540a733656f0d60405160405180910390a45b5050565b6000620001fc8383620002cc60201b60201c565b620002575782600001829080600181540180825580915050600190039060005260206000200160009091909190915055826000018054905083600101600084815260200190815260200160002081905550600190506200025c565b600090505b92915050565b600080600084815260200190815260200160002060000160008373ffffffffffffffffffffffffffffffffffffffff1673ffffffffffffffffffffffffffffffffffffffff16815260200190815260200160002060009054906101000a900460ff16905092915050565b600080836001016000848152602001908152602001600020541415905092915050565b61167980620002ff6000396000f3fe608060405234801561001057600080fd5b50600436106100b45760003560e01c8063a217fddf11610071578063a217fddf146101b1578063c5a2d352146101cf578063ca15c873146101eb578063d547741f1461021b578063d8f4b6fd14610237578063f0ba844014610255576100b4565b806301ffc9a7146100b9578063248a9ca3146100e95780632f2ff15d1461011957806336568abe146101355780639010d07c1461015157806391d1485414610181575b600080fd5b6100d360048036038101906100ce919061102f565b610285565b6040516100e09190611244565b60405180910390f35b61010360048036038101906100fe9190610f8e565b6102ff565b604051610110919061125f565b60405180910390f35b610133600480360381019061012e9190610fb7565b61031e565b005b61014f600480360381019061014a9190610fb7565b610352565b005b61016b60048036038101906101669190610ff3565b610386565b6040516101789190611229565b60405180910390f35b61019b60048036038101906101969190610fb7565b6103b5565b6040516101a89190611244565b60405180910390f35b6101b961041f565b6040516101c6919061125f565b60405180910390f35b6101e960048036038101906101e49190611081565b610426565b005b61020560048036038101906102009190610f8e565b610475565b60405161021291906112dc565b60405180910390f35b61023560048036038101906102309190610fb7565b610499565b005b61023f6104cd565b60405161024c919061125f565b60405180910390f35b61026f600480360381019061026a9190611058565b6104f1565b60405161027c919061125f565b60405180910390f35b60007f5a05180f000000000000000000000000000000000000000000000000000000007bffffffffffffffffffffffffffffffffffffffffffffffffffffffff1916827bffffffffffffffffffffffffffffffffffffffffffffffffffffffff191614806102f857506102f782610547565b5b9050919050565b6000806000838152602001908152602001600020600101549050919050565b61032882826105c1565b61034d816001600085815260200190815260200160002061051790919063ffffffff16565b505050565b61035c82826105ea565b610381816001600085815260200190815260200160002061066d90919063ffffffff16565b505050565b60006103ad826001600086815260200190815260200160002061069d90919063ffffffff16565b905092915050565b600080600084815260200190815260200160002060000160008373ffffffffffffffffffffffffffffffffffffffff1673ffffffffffffffffffffffffffffffffffffffff16815260200190815260200160002060009054906101000a900460ff16905092915050565b6000801b81565b7f0ac90c257048ef1c3e387c26d4a99bde06894efbcbff862dc1885c3a9319308a610458816104536106b7565b6106bf565b816002600085815260200190815260200160002081905550505050565b60006104926001600084815260200190815260200160002061075c565b9050919050565b6104a38282610771565b6104c8816001600085815260200190815260200160002061066d90919063ffffffff16565b505050565b7f0ac90c257048ef1c3e387c26d4a99bde06894efbcbff862dc1885c3a9319308a81565b60026020528060005260406000206000915090505481565b610513828261079a565b5050565b600061053f836000018373ffffffffffffffffffffffffffffffffffffffff1660001b61087a565b905092915050565b60007f7965db0b000000000000000000000000000000000000000000000000000000007bffffffffffffffffffffffffffffffffffffffffffffffffffffffff1916827bffffffffffffffffffffffffffffffffffffffffffffffffffffffff191614806105ba57506105b9826108ea565b5b9050919050565b6105ca826102ff565b6105db816105d66106b7565b6106bf565b6105e5838361079a565b505050565b6105f26106b7565b73ffffffffffffffffffffffffffffffffffffffff168173ffffffffffffffffffffffffffffffffffffffff161461065f576040517f08c379a0000000000000000000000000000000000000000000000000000000008152600401610656906112bc565b60405180910390fd5b6106698282610954565b5050565b6000610695836000018373ffffffffffffffffffffffffffffffffffffffff1660001b610a35565b905092915050565b60006106ac8360000183610bbb565b60001c905092915050565b600033905090565b6106c982826103b5565b610758576106ee8173ffffffffffffffffffffffffffffffffffffffff166014610c0c565b6106fc8360001c6020610c0c565b60405160200161070d9291906111ef565b6040516020818303038152906040526040517f08c379a000000000000000000000000000000000000000000000000000000000815260040161074f919061127a565b60405180910390fd5b5050565b600061076a82600001610f06565b9050919050565b61077a826102ff565b61078b816107866106b7565b6106bf565b6107958383610954565b505050565b6107a482826103b5565b61087657600160008084815260200190815260200160002060000160008373ffffffffffffffffffffffffffffffffffffffff1673ffffffffffffffffffffffffffffffffffffffff16815260200190815260200160002060006101000a81548160ff02191690831515021790555061081b6106b7565b73ffffffffffffffffffffffffffffffffffffffff168173ffffffffffffffffffffffffffffffffffffffff16837f2f8788117e7eff1d82e926ec794901d17c78024a50270940304540a733656f0d60405160405180910390a45b5050565b60006108868383610f17565b6108df5782600001829080600181540180825580915050600190039060005260206000200160009091909190915055826000018054905083600101600084815260200190815260200160002081905550600190506108e4565b600090505b92915050565b60007f01ffc9a7000000000000000000000000000000000000000000000000000000007bffffffffffffffffffffffffffffffffffffffffffffffffffffffff1916827bffffffffffffffffffffffffffffffffffffffffffffffffffffffff1916149050919050565b61095e82826103b5565b15610a3157600080600084815260200190815260200160002060000160008373ffffffffffffffffffffffffffffffffffffffff1673ffffffffffffffffffffffffffffffffffffffff16815260200190815260200160002060006101000a81548160ff0219169083151502179055506109d66106b7565b73ffffffffffffffffffffffffffffffffffffffff168173ffffffffffffffffffffffffffffffffffffffff16837ff6391f5c32d9c69d2a47ea670b442974b53935d1edc7fd64eb21e047a839171b60405160405180910390a45b5050565b60008083600101600084815260200190815260200160002054905060008114610baf576000600182610a6791906113ce565b9050600060018660000180549050610a7f91906113ce565b9050818114610b3a576000866000018281548110610ac6577f4e487b7100000000000000000000000000000000000000000000000000000000600052603260045260246000fd5b9060005260206000200154905080876000018481548110610b10577f4e487b7100000000000000000000000000000000000000000000000000000000600052603260045260246000fd5b90600052602060002001819055508387600101600083815260200190815260200160002081905550505b85600001805480610b74577f4e487b7100000000000000000000000000000000000000000000000000000000600052603160045260246000fd5b600190038181906000526020600020016000905590558560010160008681526020019081526020016000206000905560019350505050610bb5565b60009150505b92915050565b6000826000018281548110610bf9577f4e487b7100000000000000000000000000000000000000000000000000000000600052603260045260246000fd5b9060005260206000200154905092915050565b606060006002836002610c1f9190611374565b610c29919061131e565b67ffffffffffffffff811115610c68577f4e487b7100000000000000000000000000000000000000000000000000000000600052604160045260246000fd5b6040519080825280601f01601f191660200182016040528015610c9a5781602001600182028036833780820191505090505b5090507f300000000000000000000000000000000000000000000000000000000000000081600081518110610cf8577f4e487b7100000000000000000000000000000000000000000000000000000000600052603260045260246000fd5b60200101907effffffffffffffffffffffffffffffffffffffffffffffffffffffffffffff1916908160001a9053507f780000000000000000000000000000000000000000000000000000000000000081600181518110610d82577f4e487b7100000000000000000000000000000000000000000000000000000000600052603260045260246000fd5b60200101907effffffffffffffffffffffffffffffffffffffffffffffffffffffffffffff1916908160001a90535060006001846002610dc29190611374565b610dcc919061131e565b90505b6001811115610eb8577f3031323334353637383961626364656600000000000000000000000000000000600f861660108110610e34577f4e487b7100000000000000000000000000000000000000000000000000000000600052603260045260246000fd5b1a60f81b828281518110610e71577f4e487b7100000000000000000000000000000000000000000000000000000000600052603260045260246000fd5b60200101907effffffffffffffffffffffffffffffffffffffffffffffffffffffffffffff1916908160001a905350600485901c945080610eb1906114b3565b9050610dcf565b5060008414610efc576040517f08c379a0000000000000000000000000000000000000000000000000000000008152600401610ef39061129c565b60405180910390fd5b8091505092915050565b600081600001805490509050919050565b600080836001016000848152602001908152602001600020541415905092915050565b600081359050610f49816115e7565b92915050565b600081359050610f5e816115fe565b92915050565b600081359050610f7381611615565b92915050565b600081359050610f888161162c565b92915050565b600060208284031215610fa057600080fd5b6000610fae84828501610f4f565b91505092915050565b60008060408385031215610fca57600080fd5b6000610fd885828601610f4f565b9250506020610fe985828601610f3a565b9150509250929050565b6000806040838503121561100657600080fd5b600061101485828601610f4f565b925050602061102585828601610f79565b9150509250929050565b60006020828403121561104157600080fd5b600061104f84828501610f64565b91505092915050565b60006020828403121561106a57600080fd5b600061107884828501610f79565b91505092915050565b6000806040838503121561109457600080fd5b60006110a285828601610f79565b92505060206110b385828601610f4f565b9150509250929050565b6110c681611402565b82525050565b6110d581611414565b82525050565b6110e481611420565b82525050565b60006110f5826112f7565b6110ff8185611302565b935061110f818560208601611480565b6111188161150c565b840191505092915050565b600061112e826112f7565b6111388185611313565b9350611148818560208601611480565b80840191505092915050565b6000611161602083611302565b915061116c8261151d565b602082019050919050565b6000611184601783611313565b915061118f82611546565b601782019050919050565b60006111a7601183611313565b91506111b28261156f565b601182019050919050565b60006111ca602f83611302565b91506111d582611598565b604082019050919050565b6111e981611476565b82525050565b60006111fa82611177565b91506112068285611123565b91506112118261119a565b915061121d8284611123565b91508190509392505050565b600060208201905061123e60008301846110bd565b92915050565b600060208201905061125960008301846110cc565b92915050565b600060208201905061127460008301846110db565b92915050565b6000602082019050818103600083015261129481846110ea565b905092915050565b600060208201905081810360008301526112b581611154565b9050919050565b600060208201905081810360008301526112d5816111bd565b9050919050565b60006020820190506112f160008301846111e0565b92915050565b600081519050919050565b600082825260208201905092915050565b600081905092915050565b600061132982611476565b915061133483611476565b9250827fffffffffffffffffffffffffffffffffffffffffffffffffffffffffffffffff03821115611369576113686114dd565b5b828201905092915050565b600061137f82611476565b915061138a83611476565b9250817fffffffffffffffffffffffffffffffffffffffffffffffffffffffffffffffff04831182151516156113c3576113c26114dd565b5b828202905092915050565b60006113d982611476565b91506113e483611476565b9250828210156113f7576113f66114dd565b5b828203905092915050565b600061140d82611456565b9050919050565b60008115159050919050565b6000819050919050565b60007fffffffff0000000000000000000000000000000000000000000000000000000082169050919050565b600073ffffffffffffffffffffffffffffffffffffffff82169050919050565b6000819050919050565b60005b8381101561149e578082015181840152602081019050611483565b838111156114ad576000848401525b50505050565b60006114be82611476565b915060008214156114d2576114d16114dd565b5b600182039050919050565b7f4e487b7100000000000000000000000000000000000000000000000000000000600052601160045260246000fd5b6000601f19601f8301169050919050565b7f537472696e67733a20686578206c656e67746820696e73756666696369656e74600082015250565b7f416363657373436f6e74726f6c3a206163636f756e7420000000000000000000600082015250565b7f206973206d697373696e6720726f6c6520000000000000000000000000000000600082015250565b7f416363657373436f6e74726f6c3a2063616e206f6e6c792072656e6f756e636560008201527f20726f6c657320666f722073656c660000000000000000000000000000000000602082015250565b6115f081611402565b81146115fb57600080fd5b50565b61160781611420565b811461161257600080fd5b50565b61161e8161142a565b811461162957600080fd5b50565b61163581611476565b811461164057600080fd5b5056fea2646970667358221220294f487d058ee794f6d7edc33b1c4fbd93474f50d3afa3826c0566f6ae39350f64736f6c63430008040033"
}