{
  "address": "0x97707f7809bC8dcb1093B0071DB9291b77127634",
  "abi": [
    {
      "inputs": [
        {
          "internalType": "address",
          "name": "_feed",
          "type": "address"
        }
      ],
      "stateMutability": "nonpayable",
      "type": "constructor"
    },
    {
      "anonymous": false,
      "inputs": [
        {
          "indexed": true,
          "internalType": "address",
          "name": "owner",
          "type": "address"
        },
        {
          "indexed": true,
          "internalType": "address",
          "name": "approved",
          "type": "address"
        },
        {
          "indexed": true,
          "internalType": "uint256",
          "name": "tokenId",
          "type": "uint256"
        }
      ],
      "name": "Approval",
      "type": "event"
    },
    {
      "anonymous": false,
      "inputs": [
        {
          "indexed": true,
          "internalType": "address",
          "name": "owner",
          "type": "address"
        },
        {
          "indexed": true,
          "internalType": "address",
          "name": "operator",
          "type": "address"
        },
        {
          "indexed": false,
          "internalType": "bool",
          "name": "approved",
          "type": "bool"
        }
      ],
      "name": "ApprovalForAll",
      "type": "event"
    },
    {
      "anonymous": false,
      "inputs": [
        {
          "indexed": true,
          "internalType": "address",
          "name": "from",
          "type": "address"
        },
        {
          "indexed": true,
          "internalType": "address",
          "name": "to",
          "type": "address"
        },
        {
          "indexed": true,
          "internalType": "uint256",
          "name": "tokenId",
          "type": "uint256"
        }
      ],
      "name": "Transfer",
      "type": "event"
    },
    {
      "inputs": [
        {
          "internalType": "address",
          "name": "to",
          "type": "address"
        },
        {
          "internalType": "uint256",
          "name": "tokenId",
          "type": "uint256"
        }
      ],
      "name": "approve",
      "outputs": [],
      "stateMutability": "nonpayable",
      "type": "function"
    },
    {
      "inputs": [
        {
          "internalType": "address",
          "name": "owner",
          "type": "address"
        }
      ],
      "name": "balanceOf",
      "outputs": [
        {
          "internalType": "uint256",
          "name": "",
          "type": "uint256"
        }
      ],
      "stateMutability": "view",
      "type": "function"
    },
    {
      "inputs": [],
      "name": "feed",
      "outputs": [
        {
          "internalType": "contract IDataFeed",
          "name": "",
          "type": "address"
        }
      ],
      "stateMutability": "view",
      "type": "function"
    },
    {
      "inputs": [
        {
          "internalType": "uint256",
          "name": "tokenId",
          "type": "uint256"
        }
      ],
      "name": "getApproved",
      "outputs": [
        {
          "internalType": "address",
          "name": "",
          "type": "address"
        }
      ],
      "stateMutability": "view",
      "type": "function"
    },
    {
      "inputs": [
        {
          "internalType": "address",
          "name": "owner",
          "type": "address"
        },
        {
          "internalType": "address",
          "name": "operator",
          "type": "address"
        }
      ],
      "name": "isApprovedForAll",
      "outputs": [
        {
          "internalType": "bool",
          "name": "",
          "type": "bool"
        }
      ],
      "stateMutability": "view",
      "type": "function"
    },
    {
      "inputs": [
        {
          "internalType": "bytes32[]",
          "name": "states",
          "type": "bytes32[]"
        },
        {
          "internalType": "string[]",
          "name": "uris",
          "type": "string[]"
        }
      ],
      "name": "mint",
      "outputs": [],
      "stateMutability": "nonpayable",
      "type": "function"
    },
    {
      "inputs": [],
      "name": "name",
      "outputs": [
        {
          "internalType": "string",
          "name": "",
          "type": "string"
        }
      ],
      "stateMutability": "view",
      "type": "function"
    },
    {
      "inputs": [
        {
          "internalType": "uint256",
          "name": "tokenId",
          "type": "uint256"
        }
      ],
      "name": "ownerOf",
      "outputs": [
        {
          "internalType": "address",
          "name": "",
          "type": "address"
        }
      ],
      "stateMutability": "view",
      "type": "function"
    },
    {
      "inputs": [
        {
          "internalType": "address",
          "name": "from",
          "type": "address"
        },
        {
          "internalType": "address",
          "name": "to",
          "type": "address"
        },
        {
          "internalType": "uint256",
          "name": "tokenId",
          "type": "uint256"
        }
      ],
      "name": "safeTransferFrom",
      "outputs": [],
      "stateMutability": "nonpayable",
      "type": "function"
    },
    {
      "inputs": [
        {
          "internalType": "address",
          "name": "from",
          "type": "address"
        },
        {
          "internalType": "address",
          "name": "to",
          "type": "address"
        },
        {
          "internalType": "uint256",
          "name": "tokenId",
          "type": "uint256"
        },
        {
          "internalType": "bytes",
          "name": "_data",
          "type": "bytes"
        }
      ],
      "name": "safeTransferFrom",
      "outputs": [],
      "stateMutability": "nonpayable",
      "type": "function"
    },
    {
      "inputs": [
        {
          "internalType": "address",
          "name": "operator",
          "type": "address"
        },
        {
          "internalType": "bool",
          "name": "approved",
          "type": "bool"
        }
      ],
      "name": "setApprovalForAll",
      "outputs": [],
      "stateMutability": "nonpayable",
      "type": "function"
    },
    {
      "inputs": [
        {
          "internalType": "bytes4",
          "name": "interfaceId",
          "type": "bytes4"
        }
      ],
      "name": "supportsInterface",
      "outputs": [
        {
          "internalType": "bool",
          "name": "",
          "type": "bool"
        }
      ],
      "stateMutability": "view",
      "type": "function"
    },
    {
      "inputs": [],
      "name": "symbol",
      "outputs": [
        {
          "internalType": "string",
          "name": "",
          "type": "string"
        }
      ],
      "stateMutability": "view",
      "type": "function"
    },
    {
      "inputs": [
        {
          "internalType": "uint256",
          "name": "tokenId",
          "type": "uint256"
        }
      ],
      "name": "tokenURI",
      "outputs": [
        {
          "internalType": "string",
          "name": "",
          "type": "string"
        }
      ],
      "stateMutability": "view",
      "type": "function"
    },
    {
      "inputs": [
        {
          "internalType": "address",
          "name": "from",
          "type": "address"
        },
        {
          "internalType": "address",
          "name": "to",
          "type": "address"
        },
        {
          "internalType": "uint256",
          "name": "tokenId",
          "type": "uint256"
        }
      ],
      "name": "transferFrom",
      "outputs": [],
      "stateMutability": "nonpayable",
      "type": "function"
    }
  ],
  "transactionHash": "0x6efe442ccceb5b81bf62c472d6b65cdf120397eeb3d2cd2027aea0ef7085648d",
  "args": [
    "0x8e671978c12Bdf1Ebe9271145C75E093a7e9c036"
  ],
  "solcInputHash": "c4ea04836a16d2eb1c079b8d9ecee7f9",
  "bytecode": "0x60a06040523480156200001157600080fd5b5060405162002d3538038062002d358339818101604052810190620000379190620001dc565b6040518060400160405280600781526020017f44796e616d6963000000000000000000000000000000000000000000000000008152506040518060400160405280600481526020017f444e4654000000000000000000000000000000000000000000000000000000008152508160009080519060200190620000bb92919062000115565b508060019080519060200190620000d492919062000115565b5050508073ffffffffffffffffffffffffffffffffffffffff1660808173ffffffffffffffffffffffffffffffffffffffff1660601b8152505050620002bb565b82805462000123906200023c565b90600052602060002090601f01602090048101928262000147576000855562000193565b82601f106200016257805160ff191683800117855562000193565b8280016001018555821562000193579182015b828111156200019257825182559160200191906001019062000175565b5b509050620001a29190620001a6565b5090565b5b80821115620001c1576000816000905550600101620001a7565b5090565b600081519050620001d681620002a1565b92915050565b600060208284031215620001ef57600080fd5b6000620001ff84828501620001c5565b91505092915050565b600062000215826200021c565b9050919050565b600073ffffffffffffffffffffffffffffffffffffffff82169050919050565b600060028204905060018216806200025557607f821691505b602082108114156200026c576200026b62000272565b5b50919050565b7f4e487b7100000000000000000000000000000000000000000000000000000000600052602260045260246000fd5b620002ac8162000208565b8114620002b857600080fd5b50565b60805160601c612a54620002e1600039600081816107e50152610c540152612a546000f3fe608060405234801561001057600080fd5b50600436106100f55760003560e01c806342842e0e11610097578063a22cb46511610066578063a22cb46514610284578063b88d4fde146102a0578063c87b56dd146102bc578063e985e9c5146102ec576100f5565b806342842e0e146101ea5780636352211e1461020657806370a082311461023657806395d89b4114610266576100f5565b8063081812fc116100d3578063081812fc14610164578063095ea7b31461019457806323b872dd146101b057806337a7b7d8146101cc576100f5565b806301ffc9a7146100fa578063047b071f1461012a57806306fdde0314610146575b600080fd5b610114600480360381019061010f9190611c15565b61031c565b6040516101219190611fb2565b60405180910390f35b610144600480360381019061013f9190611b77565b6103fe565b005b61014e610554565b60405161015b9190611fe8565b60405180910390f35b61017e60048036038101906101799190611c67565b6105e6565b60405161018b9190611f4b565b60405180910390f35b6101ae60048036038101906101a99190611b3b565b61066b565b005b6101ca60048036038101906101c59190611a35565b610783565b005b6101d46107e3565b6040516101e19190611fcd565b60405180910390f35b61020460048036038101906101ff9190611a35565b610807565b005b610220600480360381019061021b9190611c67565b610827565b60405161022d9190611f4b565b60405180910390f35b610250600480360381019061024b91906119d0565b6108d9565b60405161025d91906121ea565b60405180910390f35b61026e610991565b60405161027b9190611fe8565b60405180910390f35b61029e60048036038101906102999190611aff565b610a23565b005b6102ba60048036038101906102b59190611a84565b610ba4565b005b6102d660048036038101906102d19190611c67565b610c06565b6040516102e39190611fe8565b60405180910390f35b610306600480360381019061030191906119f9565b610dd8565b6040516103139190611fb2565b60405180910390f35b60007f80ac58cd000000000000000000000000000000000000000000000000000000007bffffffffffffffffffffffffffffffffffffffffffffffffffffffff1916827bffffffffffffffffffffffffffffffffffffffffffffffffffffffff191614806103e757507f5b5e139f000000000000000000000000000000000000000000000000000000007bffffffffffffffffffffffffffffffffffffffffffffffffffffffff1916827bffffffffffffffffffffffffffffffffffffffffffffffffffffffff1916145b806103f757506103f682610e6c565b5b9050919050565b818190508484905014610446576040517f08c379a000000000000000000000000000000000000000000000000000000000815260040161043d9061200a565b60405180910390fd5b60006104526006610ed6565b905060005b858590508110156105315783838281811061049b577f4e487b7100000000000000000000000000000000000000000000000000000000600052603260045260246000fd5b90506020028101906104ad9190612205565b6008600085815260200190815260200160002060008989868181106104fb577f4e487b7100000000000000000000000000000000000000000000000000000000600052603260045260246000fd5b905060200201358152602001908152602001600020919061051d9291906117b3565b508080610529906124bb565b915050610457565b5061053c6006610ee4565b61054d610547610efa565b82610f02565b5050505050565b60606000805461056390612458565b80601f016020809104026020016040519081016040528092919081815260200182805461058f90612458565b80156105dc5780601f106105b1576101008083540402835291602001916105dc565b820191906000526020600020905b8154815290600101906020018083116105bf57829003601f168201915b5050505050905090565b60006105f182610f20565b610630576040517f08c379a00000000000000000000000000000000000000000000000000000000081526004016106279061214a565b60405180910390fd5b6004600083815260200190815260200160002060009054906101000a900473ffffffffffffffffffffffffffffffffffffffff169050919050565b600061067682610827565b90508073ffffffffffffffffffffffffffffffffffffffff168373ffffffffffffffffffffffffffffffffffffffff1614156106e7576040517f08c379a00000000000000000000000000000000000000000000000000000000081526004016106de906121aa565b60405180910390fd5b8073ffffffffffffffffffffffffffffffffffffffff16610706610efa565b73ffffffffffffffffffffffffffffffffffffffff16148061073557506107348161072f610efa565b610dd8565b5b610774576040517f08c379a000000000000000000000000000000000000000000000000000000000815260040161076b906120ca565b60405180910390fd5b61077e8383610f8c565b505050565b61079461078e610efa565b82611045565b6107d3576040517f08c379a00000000000000000000000000000000000000000000000000000000081526004016107ca906121ca565b60405180910390fd5b6107de838383611123565b505050565b7f000000000000000000000000000000000000000000000000000000000000000081565b61082283838360405180602001604052806000815250610ba4565b505050565b6000806002600084815260200190815260200160002060009054906101000a900473ffffffffffffffffffffffffffffffffffffffff169050600073ffffffffffffffffffffffffffffffffffffffff168173ffffffffffffffffffffffffffffffffffffffff1614156108d0576040517f08c379a00000000000000000000000000000000000000000000000000000000081526004016108c79061210a565b60405180910390fd5b80915050919050565b60008073ffffffffffffffffffffffffffffffffffffffff168273ffffffffffffffffffffffffffffffffffffffff16141561094a576040517f08c379a0000000000000000000000000000000000000000000000000000000008152600401610941906120ea565b60405180910390fd5b600360008373ffffffffffffffffffffffffffffffffffffffff1673ffffffffffffffffffffffffffffffffffffffff168152602001908152602001600020549050919050565b6060600180546109a090612458565b80601f01602080910402602001604051908101604052809291908181526020018280546109cc90612458565b8015610a195780601f106109ee57610100808354040283529160200191610a19565b820191906000526020600020905b8154815290600101906020018083116109fc57829003601f168201915b5050505050905090565b610a2b610efa565b73ffffffffffffffffffffffffffffffffffffffff168273ffffffffffffffffffffffffffffffffffffffff161415610a99576040517f08c379a0000000000000000000000000000000000000000000000000000000008152600401610a909061208a565b60405180910390fd5b8060056000610aa6610efa565b73ffffffffffffffffffffffffffffffffffffffff1673ffffffffffffffffffffffffffffffffffffffff16815260200190815260200160002060008473ffffffffffffffffffffffffffffffffffffffff1673ffffffffffffffffffffffffffffffffffffffff16815260200190815260200160002060006101000a81548160ff0219169083151502179055508173ffffffffffffffffffffffffffffffffffffffff16610b53610efa565b73ffffffffffffffffffffffffffffffffffffffff167f17307eab39ab6107e8899845ad3d59bd9653f200f220920489ca2b5937696c3183604051610b989190611fb2565b60405180910390a35050565b610bb5610baf610efa565b83611045565b610bf4576040517f08c379a0000000000000000000000000000000000000000000000000000000008152600401610beb906121ca565b60405180910390fd5b610c008484848461137f565b50505050565b6060610c1182610f20565b610c50576040517f08c379a0000000000000000000000000000000000000000000000000000000008152600401610c479061218a565b60405180910390fd5b60007f000000000000000000000000000000000000000000000000000000000000000073ffffffffffffffffffffffffffffffffffffffff1663f0ba8440846040518263ffffffff1660e01b8152600401610cab91906121ea565b60206040518083038186803b158015610cc357600080fd5b505afa158015610cd7573d6000803e3d6000fd5b505050506040513d601f19601f82011682018060405250810190610cfb9190611bec565b90506000811415610d1d57600760008481526020019081526020016000205490505b60006008600085815260200190815260200160002060008381526020019081526020016000208054610d4e90612458565b80601f0160208091040260200160405190810160405280929190818152602001828054610d7a90612458565b8015610dc75780601f10610d9c57610100808354040283529160200191610dc7565b820191906000526020600020905b815481529060010190602001808311610daa57829003601f168201915b505050505090508092505050919050565b6000600560008473ffffffffffffffffffffffffffffffffffffffff1673ffffffffffffffffffffffffffffffffffffffff16815260200190815260200160002060008373ffffffffffffffffffffffffffffffffffffffff1673ffffffffffffffffffffffffffffffffffffffff16815260200190815260200160002060009054906101000a900460ff16905092915050565b60007f01ffc9a7000000000000000000000000000000000000000000000000000000007bffffffffffffffffffffffffffffffffffffffffffffffffffffffff1916827bffffffffffffffffffffffffffffffffffffffffffffffffffffffff1916149050919050565b600081600001549050919050565b6001816000016000828254019250508190555050565b600033905090565b610f1c8282604051806020016040528060008152506113db565b5050565b60008073ffffffffffffffffffffffffffffffffffffffff166002600084815260200190815260200160002060009054906101000a900473ffffffffffffffffffffffffffffffffffffffff1673ffffffffffffffffffffffffffffffffffffffff1614159050919050565b816004600083815260200190815260200160002060006101000a81548173ffffffffffffffffffffffffffffffffffffffff021916908373ffffffffffffffffffffffffffffffffffffffff160217905550808273ffffffffffffffffffffffffffffffffffffffff16610fff83610827565b73ffffffffffffffffffffffffffffffffffffffff167f8c5be1e5ebec7d5bd14f71427d1e84f3dd0314c0f7b2291e5b200ac8c7c3b92560405160405180910390a45050565b600061105082610f20565b61108f576040517f08c379a0000000000000000000000000000000000000000000000000000000008152600401611086906120aa565b60405180910390fd5b600061109a83610827565b90508073ffffffffffffffffffffffffffffffffffffffff168473ffffffffffffffffffffffffffffffffffffffff16148061110957508373ffffffffffffffffffffffffffffffffffffffff166110f1846105e6565b73ffffffffffffffffffffffffffffffffffffffff16145b8061111a57506111198185610dd8565b5b91505092915050565b8273ffffffffffffffffffffffffffffffffffffffff1661114382610827565b73ffffffffffffffffffffffffffffffffffffffff1614611199576040517f08c379a00000000000000000000000000000000000000000000000000000000081526004016111909061216a565b60405180910390fd5b600073ffffffffffffffffffffffffffffffffffffffff168273ffffffffffffffffffffffffffffffffffffffff161415611209576040517f08c379a00000000000000000000000000000000000000000000000000000000081526004016112009061206a565b60405180910390fd5b611214838383611436565b61121f600082610f8c565b6001600360008573ffffffffffffffffffffffffffffffffffffffff1673ffffffffffffffffffffffffffffffffffffffff168152602001908152602001600020600082825461126f9190612340565b925050819055506001600360008473ffffffffffffffffffffffffffffffffffffffff1673ffffffffffffffffffffffffffffffffffffffff16815260200190815260200160002060008282546112c691906122ea565b92505081905550816002600083815260200190815260200160002060006101000a81548173ffffffffffffffffffffffffffffffffffffffff021916908373ffffffffffffffffffffffffffffffffffffffff160217905550808273ffffffffffffffffffffffffffffffffffffffff168473ffffffffffffffffffffffffffffffffffffffff167fddf252ad1be2c89b69c2b068fc378daa952ba7f163c4a11628f55a4df523b3ef60405160405180910390a4505050565b61138a848484611123565b6113968484848461143b565b6113d5576040517f08c379a00000000000000000000000000000000000000000000000000000000081526004016113cc9061202a565b60405180910390fd5b50505050565b6113e583836115d2565b6113f2600084848461143b565b611431576040517f08c379a00000000000000000000000000000000000000000000000000000000081526004016114289061202a565b60405180910390fd5b505050565b505050565b600061145c8473ffffffffffffffffffffffffffffffffffffffff166117a0565b156115c5578373ffffffffffffffffffffffffffffffffffffffff1663150b7a02611485610efa565b8786866040518563ffffffff1660e01b81526004016114a79493929190611f66565b602060405180830381600087803b1580156114c157600080fd5b505af19250505080156114f257506040513d601f19601f820116820180604052508101906114ef9190611c3e565b60015b611575573d8060008114611522576040519150601f19603f3d011682016040523d82523d6000602084013e611527565b606091505b5060008151141561156d576040517f08c379a00000000000000000000000000000000000000000000000000000000081526004016115649061202a565b60405180910390fd5b805181602001fd5b63150b7a0260e01b7bffffffffffffffffffffffffffffffffffffffffffffffffffffffff1916817bffffffffffffffffffffffffffffffffffffffffffffffffffffffff1916149150506115ca565b600190505b949350505050565b600073ffffffffffffffffffffffffffffffffffffffff168273ffffffffffffffffffffffffffffffffffffffff161415611642576040517f08c379a00000000000000000000000000000000000000000000000000000000081526004016116399061212a565b60405180910390fd5b61164b81610f20565b1561168b576040517f08c379a00000000000000000000000000000000000000000000000000000000081526004016116829061204a565b60405180910390fd5b61169760008383611436565b6001600360008473ffffffffffffffffffffffffffffffffffffffff1673ffffffffffffffffffffffffffffffffffffffff16815260200190815260200160002060008282546116e791906122ea565b92505081905550816002600083815260200190815260200160002060006101000a81548173ffffffffffffffffffffffffffffffffffffffff021916908373ffffffffffffffffffffffffffffffffffffffff160217905550808273ffffffffffffffffffffffffffffffffffffffff16600073ffffffffffffffffffffffffffffffffffffffff167fddf252ad1be2c89b69c2b068fc378daa952ba7f163c4a11628f55a4df523b3ef60405160405180910390a45050565b600080823b905060008111915050919050565b8280546117bf90612458565b90600052602060002090601f0160209004810192826117e15760008555611828565b82601f106117fa57803560ff1916838001178555611828565b82800160010185558215611828579182015b8281111561182757823582559160200191906001019061180c565b5b5090506118359190611839565b5090565b5b8082111561185257600081600090555060010161183a565b5090565b600061186961186484612281565b61225c565b90508281526020810184848401111561188157600080fd5b61188c848285612416565b509392505050565b6000813590506118a3816129ab565b92915050565b60008083601f8401126118bb57600080fd5b8235905067ffffffffffffffff8111156118d457600080fd5b6020830191508360208202830111156118ec57600080fd5b9250929050565b60008083601f84011261190557600080fd5b8235905067ffffffffffffffff81111561191e57600080fd5b60208301915083602082028301111561193657600080fd5b9250929050565b60008135905061194c816129c2565b92915050565b600081519050611961816129d9565b92915050565b600081359050611976816129f0565b92915050565b60008151905061198b816129f0565b92915050565b600082601f8301126119a257600080fd5b81356119b2848260208601611856565b91505092915050565b6000813590506119ca81612a07565b92915050565b6000602082840312156119e257600080fd5b60006119f084828501611894565b91505092915050565b60008060408385031215611a0c57600080fd5b6000611a1a85828601611894565b9250506020611a2b85828601611894565b9150509250929050565b600080600060608486031215611a4a57600080fd5b6000611a5886828701611894565b9350506020611a6986828701611894565b9250506040611a7a868287016119bb565b9150509250925092565b60008060008060808587031215611a9a57600080fd5b6000611aa887828801611894565b9450506020611ab987828801611894565b9350506040611aca878288016119bb565b925050606085013567ffffffffffffffff811115611ae757600080fd5b611af387828801611991565b91505092959194509250565b60008060408385031215611b1257600080fd5b6000611b2085828601611894565b9250506020611b318582860161193d565b9150509250929050565b60008060408385031215611b4e57600080fd5b6000611b5c85828601611894565b9250506020611b6d858286016119bb565b9150509250929050565b60008060008060408587031215611b8d57600080fd5b600085013567ffffffffffffffff811115611ba757600080fd5b611bb3878288016118a9565b9450945050602085013567ffffffffffffffff811115611bd257600080fd5b611bde878288016118f3565b925092505092959194509250565b600060208284031215611bfe57600080fd5b6000611c0c84828501611952565b91505092915050565b600060208284031215611c2757600080fd5b6000611c3584828501611967565b91505092915050565b600060208284031215611c5057600080fd5b6000611c5e8482850161197c565b91505092915050565b600060208284031215611c7957600080fd5b6000611c87848285016119bb565b91505092915050565b611c9981612374565b82525050565b611ca881612386565b82525050565b6000611cb9826122b2565b611cc381856122c8565b9350611cd3818560208601612425565b611cdc81612591565b840191505092915050565b611cf0816123f2565b82525050565b6000611d01826122bd565b611d0b81856122d9565b9350611d1b818560208601612425565b611d2481612591565b840191505092915050565b6000611d3c601c836122d9565b9150611d47826125a2565b602082019050919050565b6000611d5f6032836122d9565b9150611d6a826125cb565b604082019050919050565b6000611d82601c836122d9565b9150611d8d8261261a565b602082019050919050565b6000611da56024836122d9565b9150611db082612643565b604082019050919050565b6000611dc86019836122d9565b9150611dd382612692565b602082019050919050565b6000611deb602c836122d9565b9150611df6826126bb565b604082019050919050565b6000611e0e6038836122d9565b9150611e198261270a565b604082019050919050565b6000611e31602a836122d9565b9150611e3c82612759565b604082019050919050565b6000611e546029836122d9565b9150611e5f826127a8565b604082019050919050565b6000611e776020836122d9565b9150611e82826127f7565b602082019050919050565b6000611e9a602c836122d9565b9150611ea582612820565b604082019050919050565b6000611ebd6029836122d9565b9150611ec88261286f565b604082019050919050565b6000611ee0602f836122d9565b9150611eeb826128be565b604082019050919050565b6000611f036021836122d9565b9150611f0e8261290d565b604082019050919050565b6000611f266031836122d9565b9150611f318261295c565b604082019050919050565b611f45816123e8565b82525050565b6000602082019050611f606000830184611c90565b92915050565b6000608082019050611f7b6000830187611c90565b611f886020830186611c90565b611f956040830185611f3c565b8181036060830152611fa78184611cae565b905095945050505050565b6000602082019050611fc76000830184611c9f565b92915050565b6000602082019050611fe26000830184611ce7565b92915050565b600060208201905081810360008301526120028184611cf6565b905092915050565b6000602082019050818103600083015261202381611d2f565b9050919050565b6000602082019050818103600083015261204381611d52565b9050919050565b6000602082019050818103600083015261206381611d75565b9050919050565b6000602082019050818103600083015261208381611d98565b9050919050565b600060208201905081810360008301526120a381611dbb565b9050919050565b600060208201905081810360008301526120c381611dde565b9050919050565b600060208201905081810360008301526120e381611e01565b9050919050565b6000602082019050818103600083015261210381611e24565b9050919050565b6000602082019050818103600083015261212381611e47565b9050919050565b6000602082019050818103600083015261214381611e6a565b9050919050565b6000602082019050818103600083015261216381611e8d565b9050919050565b6000602082019050818103600083015261218381611eb0565b9050919050565b600060208201905081810360008301526121a381611ed3565b9050919050565b600060208201905081810360008301526121c381611ef6565b9050919050565b600060208201905081810360008301526121e381611f19565b9050919050565b60006020820190506121ff6000830184611f3c565b92915050565b6000808335600160200384360303811261221e57600080fd5b80840192508235915067ffffffffffffffff82111561223c57600080fd5b60208301925060018202360383131561225457600080fd5b509250929050565b6000612266612277565b9050612272828261248a565b919050565b6000604051905090565b600067ffffffffffffffff82111561229c5761229b612562565b5b6122a582612591565b9050602081019050919050565b600081519050919050565b600081519050919050565b600082825260208201905092915050565b600082825260208201905092915050565b60006122f5826123e8565b9150612300836123e8565b9250827fffffffffffffffffffffffffffffffffffffffffffffffffffffffffffffffff0382111561233557612334612504565b5b828201905092915050565b600061234b826123e8565b9150612356836123e8565b92508282101561236957612368612504565b5b828203905092915050565b600061237f826123c8565b9050919050565b60008115159050919050565b6000819050919050565b60007fffffffff0000000000000000000000000000000000000000000000000000000082169050919050565b600073ffffffffffffffffffffffffffffffffffffffff82169050919050565b6000819050919050565b60006123fd82612404565b9050919050565b600061240f826123c8565b9050919050565b82818337600083830152505050565b60005b83811015612443578082015181840152602081019050612428565b83811115612452576000848401525b50505050565b6000600282049050600182168061247057607f821691505b6020821081141561248457612483612533565b5b50919050565b61249382612591565b810181811067ffffffffffffffff821117156124b2576124b1612562565b5b80604052505050565b60006124c6826123e8565b91507fffffffffffffffffffffffffffffffffffffffffffffffffffffffffffffffff8214156124f9576124f8612504565b5b600182019050919050565b7f4e487b7100000000000000000000000000000000000000000000000000000000600052601160045260246000fd5b7f4e487b7100000000000000000000000000000000000000000000000000000000600052602260045260246000fd5b7f4e487b7100000000000000000000000000000000000000000000000000000000600052604160045260246000fd5b6000601f19601f8301169050919050565b7f7374617465732e6c656e67746820213d20757269732e6c656e67746800000000600082015250565b7f4552433732313a207472616e7366657220746f206e6f6e20455243373231526560008201527f63656976657220696d706c656d656e7465720000000000000000000000000000602082015250565b7f4552433732313a20746f6b656e20616c7265616479206d696e74656400000000600082015250565b7f4552433732313a207472616e7366657220746f20746865207a65726f2061646460008201527f7265737300000000000000000000000000000000000000000000000000000000602082015250565b7f4552433732313a20617070726f766520746f2063616c6c657200000000000000600082015250565b7f4552433732313a206f70657261746f7220717565727920666f72206e6f6e657860008201527f697374656e7420746f6b656e0000000000000000000000000000000000000000602082015250565b7f4552433732313a20617070726f76652063616c6c6572206973206e6f74206f7760008201527f6e6572206e6f7220617070726f76656420666f7220616c6c0000000000000000602082015250565b7f4552433732313a2062616c616e636520717565727920666f7220746865207a6560008201527f726f206164647265737300000000000000000000000000000000000000000000602082015250565b7f4552433732313a206f776e657220717565727920666f72206e6f6e657869737460008201527f656e7420746f6b656e0000000000000000000000000000000000000000000000602082015250565b7f4552433732313a206d696e7420746f20746865207a65726f2061646472657373600082015250565b7f4552433732313a20617070726f76656420717565727920666f72206e6f6e657860008201527f697374656e7420746f6b656e0000000000000000000000000000000000000000602082015250565b7f4552433732313a207472616e73666572206f6620746f6b656e2074686174206960008201527f73206e6f74206f776e0000000000000000000000000000000000000000000000602082015250565b7f4552433732314d657461646174613a2055524920717565727920666f72206e6f60008201527f6e6578697374656e7420746f6b656e0000000000000000000000000000000000602082015250565b7f4552433732313a20617070726f76616c20746f2063757272656e74206f776e6560008201527f7200000000000000000000000000000000000000000000000000000000000000602082015250565b7f4552433732313a207472616e736665722063616c6c6572206973206e6f74206f60008201527f776e6572206e6f7220617070726f766564000000000000000000000000000000602082015250565b6129b481612374565b81146129bf57600080fd5b50565b6129cb81612386565b81146129d657600080fd5b50565b6129e281612392565b81146129ed57600080fd5b50565b6129f98161239c565b8114612a0457600080fd5b50565b612a10816123e8565b8114612a1b57600080fd5b5056fea2646970667358221220774c0915d2b3460a35f13e032173cf4641887fef4139052259d5be1c7e2f68fa64736f6c63430008040033"
}